:100000000C94F3020C941B030C941B030C941B0321
:100010000C941B030C941B030C941B030C941B03E8
:100020000C941B030C941B030C941B030C941B03D8
:100030000C941B030C941B030C941B030C941B03C8
:100040000C9466240C941B030C9434240C940E24FE
:100050000C941B030C941B030C941B030C941B03A8
:100060000C94B0240C941B034602000000FF08000F
:10007000053E5B4F5B3E053E6B4F6B3E051C3E7C79
:100080003E1C05183C7E3C18051C577D571C051C62
:100090005E7F5E1C0400183C1805FFE7C3E7FF0401
:1000A0000018241805FFE7DBE7FF0530483A060E85
:1000B00005262979292605407F05050705407F0586
:1000C000253F055A3CE73C5A057F3E1C1C080508A5
:1000D0001C1C3E7F0514227F221405FFFFFFFFFF3B
:1000E00005F0F0F0F0F003FFFFFF05000000FFFF58
:1000F000050F0F0F0F0F0508047E04080510207E62
:1001000020100508082A1C0805081C2A080805AA4A
:10011000005500AA05AA55AA55AA0530383E383020
:1001200005060E3E0E06020000015F0307000705EC
:10013000147F147F1405444AFF4A32056313086490
:10014000630536494936480107033E4141034141B1
:100150003E05082A1C2A080508083E08080260E037
:100160000408080808026060056010080403053EE2
:100170005149453E0304027F0571494949460541FD
:1001800049494936050F0808087F054F4949493153
:10019000053E4949493005030101017F05364949BA
:1001A000493605064949493E026C6C026CEC03086D
:1001B0001422041414141403221408050159090903
:1001C00006053E415D594E057E0909097E057F49B8
:1001D000494936053E41414141057F4141413E0586
:1001E0007F49494941057F09090901053E414149C6
:1001F00079057F0808087F03417F4105304141416F
:100200003F057F08142241057F40404040057F02A2
:100210000C027F057F0408107F053E4141413E05E9
:100220007F09090906053E4141617E057F091929BB
:10023000460546494949310501017F0101053F4015
:1002400040403F051F2040201F053F4038403F05EC
:1002500063140814630503047804030561514945D8
:1002600043037F41410503040810600341417F05BA
:100270000402010204048080808003010204043827
:1002800044447C047F44443804384444440438449F
:10029000447F043854545804047E05010418A4A46F
:1002A0007C047F040478017D0384857C047F10280E
:1002B00044017F057C04780478047C0404780438C5
:1002C00044443804FC24241804182424FC047C042A
:1002D0000408045854543403047F04043C40407C14
:1002E000041C20407C053C4030403C046C10106CE9
:1002F000041CA0A07C046454544C04083641410101
:100300007F04414136080402010201057F41414159
:100310007F053E55555541053844443844057C2AEF
:100320002A3E14057E0202060605027E027E0205B2
:100330006355494163053844443C0405407E201E12
:10034000200506027E0202086313086463006060F1
:10035000052A2A2A2A2A03514A4403444A510500FD
:1003600000FF010303E080FF053612362436030246
:100370000502021818021010053040FF0101041F89
:1003800001011E000000000901017F017F020C0233
:100390007F0000000000000100017D0418247E247D
:1003A00004447E454105221C141C2205012A7C2A96
:1003B000010177044E55553903020002077E81BDC5
:1003C000A5A5817E0326292F0508142A14220408D6
:1003D00008081803080808077E81BD95A9817E05D5
:1003E00001010101010302050203242E2403191552
:1003F000120315150A02020104F8204078050609C7
:100400007F017F021818040080A0C003121F100390
:100410002629260522142A140808402F1008041E35
:10042000117C08402F10080462554C0915553F10E7
:1004300008041E117C053048484D400578151614F7
:1004400078057814161578057A1514157A05781636
:10045000151679057815141578057814151478078C
:100460007E09097F494941059EA1612121057C54EE
:10047000554644057C54564544057E55544546052D
:100480007C5554454403457E4403447E4503467DE4
:100490004603457C4505087F49413E057C0A1122FB
:1004A0007D053844454638053844464538053A45C3
:1004B00044453A05384645463905384544453805EA
:1004C0002214081422057C625A463E053C404142F3
:1004D0003C053C4042413C053C4241423C053C41DC
:1004E00040413C0502047A0502043F12120C057ECD
:1004F00049494E30043845467C043844467D04382A
:1005000046457E043A45467D043845447D04304ADC
:100510004D7A0720545438545458049CA262220443
:10052000385556580438545659043856555A0438D4
:1005300055545902017A027A0103027902030278C2
:100540000204304B4B3C047A090A710430494A30AA
:100550000430484A3104304A49320432494A3104AD
:10056000394444390508082A08080438544C38042A
:10057000384142780438404279043842417A043A9A
:1005800040407A0418A0A27904FC282810041AA07C
:10059000A07A000000080002010000030407000028
:1005A00000000000000000000000250028002B00D3
:1005B00000000000240027002A00040404040404AE
:1005C0000404020202020202030303030303010202
:1005D00004081020408001020408102001020408D1
:1005E00010203526EE2511241FBECFEFD8E0DEBF48
:1005F000CDBF11E0A0E0B1E0E4EDF9E502C0059067
:100600000D92A439B107D9F723E0A4E9B1E001C004
:100610001D92A830B207E1F712E0C2EFD2E004C0A9
:100620002197FE010E94DE2AC13FD107C9F70E942F
:100630008E260C94DD2C0C940000829590E09C0199
:1006400035952795359527952373880F991F880F22
:10065000991F8C7C282B30E0C9019595879585756D
:10066000220F331F2A7A822B089590E0FC01E25377
:10067000FA4F249186549A4FFC018491882399F073
:1006800090E0880F991FFC01E055FA4FA591B491B5
:10069000FC01EA55FA4F859194918FB7F894EC914B
:1006A000E22BEC938FBF0895CF93DF93262F2695EF
:1006B000382F70E0680F791FFC018E2F831B821783
:1006C00050F4819161507109DB019C91EF012197F8
:1006D00098838C93F2CFDF91CF910895482FFC013E
:1006E0008E2F841B8617E0F4219130E0C901959587
:1006F00087958575220F331F2A7A822B90E09C0103
:1007000035952795359527952373880F991F880F61
:10071000991F8C7C822B8295DF0111978C93E0CFFF
:100720000895AF92BF92CF92DF92EF92FF920F9314
:100730001F93CF93DF936C017B018B01040F151F77
:10074000EB015E01AE18BF08C017D10759F06991DF
:10075000D601ED91FC910190F081E02DC601099543
:10076000892B79F7C501DF91CF911F910F91FF90F0
:10077000EF90DF90CF90BF90AF900895FC01538D24
:10078000448D252F30E0842F90E0821B930B54176B
:1007900010F0CF96089501970895FC01918D828DF8
:1007A000981761F0A28DAE0FBF2FB11D5D968C9191
:1007B000928D9F5F9F73928F90E008958FEF9FEFD0
:1007C0000895FC01918D828D981731F0828DE80F8C
:1007D000F11D858D90E008958FEF9FEF0895FC0146
:1007E000918D228D892F90E0805C9F4F821B910913
:1007F0008F73992708958CE192E00E94EF0321E026
:10080000892B09F420E0822F089580E090E0892B65
:1008100029F00E94FB0381110C9400000895FC0153
:10082000A48DA80FB92FB11DA35ABF4F2C91848D51
:1008300090E001968F739927848FA689B7892C93AE
:10084000A089B1898C91837080648C93938D848D01
:10085000981306C00288F389E02D80818F7D808304
:100860000895EF92FF920F931F93CF93DF93EC01C4
:1008700081E0888F9B8D8C8D98131AC0E889F98947
:10088000808185FF15C09FB7F894EE89FF8960834A
:10089000E889F98980818370806480839FBF81E0CB
:1008A00090E0DF91CF911F910F91FF90EF9008950D
:1008B000F62E0B8D10E00F5F1F4F0F731127E02EE8
:1008C0008C8D8E110CC00FB607FCFACFE889F98920
:1008D000808185FFF5CFCE010E940F04F1CFEB8D13
:1008E000EC0FFD2FF11DE35AFF4FF0829FB7F894F4
:1008F0000B8FEA89FB8980818062CFCF682F8CE1E2
:1009000092E00C943104CF93DF93EC01888D88231F
:10091000B9F0AA89BB89E889F9898C9185FD03C062
:10092000808186FD0DC00FB607FCF7CF8C9185FF47
:10093000F2CF808185FFEDCFCE010E940F04E9CF79
:10094000DF91CF91089590E0FC01EE56FA4F24918B
:10095000FC01E253FA4F3491FC01E654FA4FE49162
:10096000EE23C9F0222339F0233001F1A8F421301D
:1009700019F1223029F1F0E0EE0FFF1FEA55FA4F8E
:10098000A591B4918FB7F894EC91611126C0309580
:100990003E233C938FBF08952730A9F02830C9F03B
:1009A000243049F7809180008F7D03C080918000C2
:1009B0008F7780938000DFCF84B58F7784BDDBCFC6
:1009C00084B58F7DFBCF8091B0008F778093B0008E
:1009D000D2CF8091B0008F7DF9CF3E2BDACF3FB7D9
:1009E000F8948091180290911902A0911A02B09186
:1009F0001B0226B5A89B05C02F3F19F00196A11D2B
:100A0000B11D3FBFBA2FA92F982F8827BC01CD0158
:100A1000620F711D811D911D42E0660F771F881FB7
:100A2000991F4A95D1F708958F929F92AF92BF92E6
:100A3000CF92DF92EF92FF924B015C010E94EF0494
:100A40006B017C010E94EF046C197D098E099F09DE
:100A5000683E734081059105A8F321E0821A910850
:100A6000A108B10888EEC80E83E0D81EE11CF11C75
:100A700081149104A104B10429F7FF90EF90DF9055
:100A8000CF90BF90AF909F908F900895FC01848D80
:100A900090A1A6A5B7A591FD15C0882381F0808DF2
:100AA000918D0597A9F481E024A535A52A173B0768
:100AB00009F080E080AB1197B7A7A6A70895828DB3
:100AC000938DEFCF882379F0808D918D059759F71D
:100AD000CD01019697A786A781E011969C9191116F
:100AE00080E080AB0895828D938DF0CFFC018689E4
:100AF00097898230910591F42389348936A325A3FF
:100B000031A720A78230910561F42189328933A76A
:100B100022A7029749F08FEF87A308952189328990
:100B2000EDCF23893489F3CF81E0F6CF2091BE0148
:100B3000260F3327331F21323105ECF42091E201D7
:100B4000FC0190E080E0243069F082E00895A091FB
:100B5000BE012191AC0142565E4FA40FB52FB11DCD
:100B60002C930196861798F38091BE01680F6093CD
:100B7000BE0180E0089581E0089508958FEF9FEF12
:100B800008958FEF9FEF08958091970190E09195E0
:100B9000819591090895CF93DF93CB01EA01642FEA
:100BA0000E949605CE01DF91CF910895CF93DF93F8
:100BB0001F92CDB7DEB7698361E0CE0101960E9436
:100BC000960581E090E00F90DF91CF910895CF924C
:100BD000DF92EF92FF921F93CF93DF93DC01589641
:100BE0001C92589788E059968C9359975A961C9264
:100BF0005A975C961C921E925B978FEF90E05E96E0
:100C00009C938E935D9790961C921E925F9756963A
:100C10008D919C915797009709F478C0FC0124911D
:100C2000263409F031C03196E491E13009F453C023
:100C300022E030E0E23021F5FC0132962491319639
:100C4000E49130E0322F22272E0F311D5C963C9329
:100C50002E935B97FC01349624913196E49130E019
:100C6000322F22272E0F311D5E963C932E935D97D7
:100C7000FC013696E4915996EC93599727E030E0C1
:100C800090963C932E935F975F96CD90DC909097D3
:100C9000F12CE12C5B962D913C915C975D96CD916A
:100CA000DC915E9710E0C217D30770F1FC01EC0DE8
:100CB000FD1D4491141708F4142F50E070E060E01B
:100CC0004F5F5F4F6F4F7F4FC40ED51EE61EF71E5E
:100CD0002F5F3F4FE8CFFC013296E491F0E05C9645
:100CE000FC93EE935B97FC013396E491F0E05E9603
:100CF000FC93EE935D97FC013496E4915996EC9346
:100D0000599725E030E0BCCF5A961C93DF91CF91E4
:100D10001F91FF90EF90DF90CF900895FC018385A5
:100D2000681738F52485358579E0679F200D311DDA
:100D30001124848150E09381992371F0882331F04C
:100D400087E090E0FC01E41BF50BAF01240F351F99
:100D5000F90180810C941D03882331F087E090E035
:100D6000BC01641B750BAB01240F351FF901808199
:100D7000089580E008958F929F92AF92BF92CF9294
:100D8000DF92EF92FF92CF93DF93FC01242F30E0AC
:100D90008381882309F447C087E090E0821B930B8E
:100DA00091E001C0990F8A95EAF78385681708F0EA
:100DB00040C024853585A90189E0689F400D511DFB
:100DC0001124BA01E48130E020E080E0A7E0B0E047
:100DD000C12CD12C7601C394F22FAD01421B530BD1
:100DE000E11101C0A901460F571FEA0148814923BB
:100DF00051F04601570104C0880C991CAA1CBB1C69
:100E0000FA95D2F788292F5F3F4F2830310521F717
:100E1000DF91CF91FF90EF90DF90CF90BF90AF9098
:100E20009F908F90089591E001C0990F4A95EAF73D
:100E3000BCCF80E0EDCFFC01228121110C94BB06D8
:100E40000C948E06462F47706695669566950C94B1
:100E50001B07CF93DF9300D0CDB7DEB769831A822B
:100E6000DC01ED91FC910084F185E02DBE016F5F06
:100E70007F4F099581E090E00F900F90DF91CF9127
:100E80000895089590E080E00895CF92DF92EF9268
:100E9000FF920F931F93CF93DF93EC0188858823F4
:100EA000A1F080919601882361F08FB7F89490911A
:100EB0009601913041F59DB3909395019DB39DBBF3
:100EC0008FBF80E58CBD81E08DBD60E08F810E9489
:100ED000A30488858823D1F030E020E08B8590E062
:100EE000880F991F28173907C8F5EE85FF85E20F8F
:100EF000F31F80818EBD00000DB407FEFDCF8EB5BF
:100F00002F5F3F4FEBCF80939501DBCF10E000E0E8
:100F10008B8590E0880F991F08171907F8F4EE8564
:100F2000FF85E00FF11FE080DE80CD8088E0F82EA5
:100F30006E2D661F6627661F8C2D0E94A304EE0C83
:100F400061E08D2D0E94A30460E08D2D0E94A3041A
:100F5000FA94F110EDCF0F5F1F4FDACF61E08F8170
:100F60000E94A3048885882371F0809196018823CC
:100F700051F09FB7F894209196018091950121300E
:100F800059F48DBB9FBFDF91CF911F910F91FF90BF
:100F9000EF90DF90CF9008958FBFF5CF42E050E003
:100FA00060E371E08CE192E00C9491030F931F9346
:100FB000CF93FC01A081B1815A96CC9186A9C80F2C
:100FC00083A98C17A0F48F0184A995A9009711F02B
:100FD0000E94802BF801C3AB8C2F90E0009711F496
:100FE00081E090E00E94E42AF80195AB84ABCF91B8
:100FF0001F910F910895CF92DF92EF92FF920F937E
:101000001F93CF93DF937C016B01EA01CA01019624
:101010000E94E42A8C010097F1F0AE01B6010E9413
:10102000C62CF801EC0FFD1F1082D701ED91FC9149
:101030000084F185E02DB801C7010995C8010E941F
:10104000802BCE01DF91CF911F910F91FF90EF90F8
:10105000DF90CF900895D0E0C0E0F3CFFC01019085
:101060000020E9F73197AF01481B590BBC018AEB0F
:1010700092E00C94FB071F93CF93DF9385ED809351
:10108000BC0080919A0190919B01A0919C01B0912C
:101090009D010796A11DB11D23E0B695A7959795D3
:1010A00087952A95D1F72091BC0024FD03C01092AA
:1010B000E20152C040919A0150919B0160919C01C4
:1010C00070919D01452B462B472B69F30097A10595
:1010D000B10541F02AE22A95F1F700C00197A10974
:1010E000B109E1CF80919901C1E0C09398018823B3
:1010F00099F1D091B8001091BA008091BC008A7B20
:101100008093BC0060E082E10E94A30460E083E180
:101110000E94A3041092E201C093E4011092E30143
:1011200061E082E10E94A30461E083E10E94A304E4
:101130008091B9008E7F8093B9008091B9008D7F36
:101140008093B90088E48093B80085E48093BC0064
:101150001093BA00D093B800DF91CF911F910895FA
:10116000CF92DF92EF92FF920F931F93CF93DF9373
:10117000DC01E9015F960D911C91909730E020E031
:101180005B96ED90FC905C976E157F0508F43AC075
:101190005D968D919C915E978617970798F156966C
:1011A000CD90DC905797F601E00FF11F6E157F058B
:1011B00069F0E4910E0F111D211D311D0F5F1F4FAE
:1011C0002F4F3F4F8FEFE81AF80AEDCF8491481761
:1011D00050F50F5F1F4F2F4F3F4FCE010C1B1D0BC4
:1011E000282F2C1B2417A8F49801280F391F569676
:1011F000ED91FC915797E20FF31F2491FC0121938D
:10120000CF01EECF50E070E060E0CE010E94CF2C25
:1012100040E0842FDF91CF911F910F91FF90EF90CD
:10122000DF90CF9008954491D4CFCF92DF92FF9278
:101230000F931F93CF93DF93EC016B01F42E890181
:10124000E9A9FAA9309709F1808191818C159D0552
:10125000C1F40280F381E02DC081FC1608F4CF2D8B
:101260004C2F50E0BF016F5F7F4FC8010E94C62C1A
:101270008C2FDF91CF911F910F91FF90DF90CF9036
:1012800008950480F581E02DDDCF888199812AAD14
:101290003BADFC01468957892417350751F02115CC
:1012A000310511F428E630E0FC01378B268B0E94D3
:1012B000E7050115110571F098014F2DB6018881E0
:1012C0009981DF91CF911F910F91FF90DF90CF9087
:1012D0000C94B008C0E0CCCF1F93CF93DF93EC0108
:1012E000142F2CA93DA94BA90E941509112389F09F
:1012F000882379F090E02EA9921758F42BA9821731
:1013000030F4ECA9FDA9E80FF11D10828F5F9F5FFB
:10131000F2CFDF91CF911F9108950F931F93CF9339
:10132000DF93EC018B01EEA5FFA541E081818111E6
:1013300001C040E0608170E0CE010E946C09F801BC
:10134000808328A19C8D21FD10C0992359F0288D00
:10135000398D2530310581F4682F8CA99DA90E9413
:1013600054030AC02A8D3B8DF4CF9923B9F0288D00
:10137000398D2530310581F788A180FF06C0F8013D
:1013800060818CA99DA90E946E03CE010E94460532
:1013900081E0DF91CF911F910F9108952A8D3B8DB0
:1013A000E8CF0F931F93CF93DF93EC01FB011082E3
:1013B000ACA5BDA5BFA7AEA7109719F08C91811160
:1013C00008C081E088AB80E0DF91CF911F910F9141
:1013D000089518AA8C8D98A191FD10C0882359F00A
:1013E000888D998D059781F40D900020E9F712976B
:1013F000BFA7AEA709C08A8D9B8DF4CF882331F19A
:10140000888D998D059781F7AEA5BFA541E011960E
:101410008C911197811101C040E08B016C9170E0BB
:10142000CE010E946C09F801808328A19C8D21FDCA
:1014300013C0992371F0288D398D2530310599F429
:10144000682F8CA99DA90E9454030DC08A8D9B8D85
:10145000D9CF2A8D3B8DF1CF992399F0288D398DE5
:101460002530310569F788A180FF06C0F801608149
:101470008CA99DA90E946E03CE010E94460581E0C1
:10148000A3CF2A8D3B8DECCFFC01438550E0440F68
:10149000551F70E060E0868597850C94CF2CBF9235
:1014A000CF92DF92EF92FF920F931F93CF93DF9330
:1014B000FC012385621708F04EC0EC01F9E06F9F34
:1014C00070011124D12CC12C062F10E0BB24B39441
:1014D000BC0CEC85FD85EE0DFF1D808590E00C2C8D
:1014E00002C0959587950A94E2F780FF27C0CE0148
:1014F0000E94440A8B858150990B801B910B880FA9
:10150000991F2E853F85820F931FFC01B082EC85C9
:10151000FD85EE0DFF1DEC0DFD1D40818B8581507D
:10152000990B801B910B880F991F2E853F85820F89
:10153000931FFC014183CE010E944507FFEFCF1AA4
:10154000DF0A88E0C816D10409F68C859D85E80E6F
:10155000F91EF7011086DF91CF911F910F91FF9037
:10156000EF90DF90CF90BF9008950F931F93CF938C
:10157000DF93EC01162F042F822F9B8191110E9483
:101580001D0399E0199F90011124AC85BD85A20F20
:10159000B31F602F70E09C8147E050E0461B570B63
:1015A000911101C0AB01A40FB51F8C93EC85FD8593
:1015B000E20FF31F20858C818823F1F047E050E093
:1015C000461B570B81E090E0A0E0B0E004C0880F1C
:1015D000991FAA1FBB1F4A95D2F7822B80878C893F
:1015E000882321F0612FCE010E944F0A81E0DF9114
:1015F000CF911F910F91089581E090E0A0E0B0E0BD
:1016000004C0880F991FAA1FBB1F0A95D2F7E5CF08
:101610009F92AF92BF92CF92DF92EF92FF920F9381
:101620001F93CF93DF93FC0189E0689FE0011124B1
:1016300081E090E0A0E0B0E06C017D01042E04C0E8
:10164000CC0CDD1CEE1CFF1C0A94D2F7BC2C7C2DAC
:10165000709507E010E0041B110904C0880F991F62
:10166000AA1FBB1F0A95D2F7A82E382F309590E0FD
:1016700080E0022F10E027E0E22EF12CAC01A485DF
:10168000B585AC0FBD1F248193806801082E02C070
:10169000D594C7940A94E2F7C0FE2AC0222319F019
:1016A000A701481B590BA40FB51F2C914B2D91106E
:1016B0004A2D242B2C93019688309105F9F68485C8
:1016C0009585C80FD91F8FEF88878489882319F0E3
:1016D000CF010E944F0A81E0DF91CF911F910F91BE
:1016E000FF90EF90DF90CF90BF90AF909F900895C4
:1016F000222319F0A701481B590BA40FB51F2C91E9
:10170000472F9110432F2423D5CFFC0152813385DD
:10171000552321F0631730F40C94080B631710F471
:101720000C94B50A80E00895242F462F477033E0CB
:10173000769567953A95E1F70C94850BFC015281FB
:101740003385552331F0631750F4483041F00C9441
:10175000B50A631720F4483011F00C94080B80E0B0
:101760000895CF92DF92EF92FF920F931F93CF9342
:10177000DF93FC01722F82815385882309F45DC0B9
:10178000651708F0BEC0283009F4BBC009E0609FAF
:1017900070011124848595858E0D9F1D50E0A22F28
:1017A000B0E024812223B9F127E030E0E901C41B35
:1017B000D50BAE012A1B3B0B480F591FEA0148818C
:1017C000820F931FEC01488384859585E701C80F3C
:1017D000D91F28858481882301F147E050E04A1B06
:1017E0005B0B81E090E0A0E0B0E004C0880F991F9F
:1017F000AA1FBB1F4A95D2F7822B88878489811143
:1018000018C081E0DF91CF911F910F91FF90EF9071
:10181000DF90CF9008959D01CFCF81E090E0A0E0D0
:10182000B0E004C0880F991FAA1FBB1F7A95D2F79A
:10183000E3CFCF010E944F0AE4CFA42FB0E0938101
:10184000992309F44FC027E030E02A1B3B0B91E0BD
:1018500001C0990F2A95EAF76517A0F6783091F242
:10186000D9E06D9FA001112401E010E020E030E0FC
:1018700068017901072E04C0CC0CDD1CEE1CFF1C96
:101880000A94D2F7DC2DCC2DC095A7E0B0E0A71BC1
:10189000B10904C0000F111F221F331FAA95D2F7F0
:1018A000F02E009530E020E0A485B585A40FB51F8B
:1018B000A20FB31F8C917381182F1923D9F07111C6
:1018C00017C07D2F872B8C932F5F3F4F283031051A
:1018D00059F784859585480F591F8FEFDA011896BF
:1018E0008C938CCF91E001C0990F4A95EAF7B4CF61
:1018F0007F2DE8CF711103C07C2F8723E4CF702F99
:10190000FCCF80E07FCF8F929F92AF92BF92CF9219
:10191000DF92EF92FF920F931F93CF93DF93CDB798
:10192000DEB728970FB6F894DEBF0FBECDBF8C018F
:10193000D62E29E0629F70011124FA013197E73019
:10194000F10558F4EA55F34F0C94DE2AF90C2B0DEF
:10195000610D980DD90D190E390EDC0112968C917E
:101960008823C1F130E020E0D8011C96ED91FC9174
:101970001D97EE0DFF1DE20FF31F808113969C91C2
:10198000992331F190E09595879580832F5F3F4FA4
:101990002830310549F7F80184859585E80EF91E50
:1019A0008FEFD70118968C9381E028960FB6F894A4
:1019B000DEBF0FBECDBFDF91CF911F910F91FF9082
:1019C000EF90DF90CF90BF90AF909F908F90089551
:1019D000880FDBCF87E090E0D8011C96ED91FC9159
:1019E000EE0DFF1DE80FF91F208121830197A0F75D
:1019F000D2CFFC0182818823E1F030E020E0D801E1
:101A00001C96ED91FC911D97EE0DFF1DE20FF31F4B
:101A1000808113969C91992341F0880F80832F5FDA
:101A20003F4F2830310559F7B6CF90E0959587950F
:101A3000F5CF81E090E0D8011C96ED91FC91EE0D80
:101A4000FF1DE80FF91F2081319720830196883010
:101A5000910589F7A0CFFC01C28085898823F9F020
:101A600040E0C801CC20C1F00E948E068983CC20C2
:101A7000C1F020E0CC24C394C20E4C2D6D2DC801C2
:101A80000E94B10B2C2D2730A9F7298147E06D2D3D
:101A9000C8010E949E0B7FCF0E94BB06E7CF198230
:101AA000E6CF87E090E0D8011C96ED91FC91EE0D19
:101AB000FF1DE80FF91F2081220F2083019798F75F
:101AC000E4CFFC01C28085898823D9F047E0C801B2
:101AD000CC20A1F00E948E068983CC20A1F028E0C2
:101AE000CC24CA94C20E4C2D6D2DC8010E94B10B9E
:101AF0002C2DC110F5CF298140E0C9CF0E94BB0633
:101B0000EBCF1982EACF30E020E0D8011C96ED91AE
:101B1000FC91EE0DFF1DE20FF31F808190E0959583
:101B2000879580832F5F3F4F2830310571F7E3CFD2
:101B3000FC0182818823C1F0B12CA12CD8011C9614
:101B4000CD90DC90CE0CDF1CCA0CDB1CF601808132
:101B50000E941D03D6018C93BFEFAB1ABB0AE8E0CD
:101B6000AE16B10459F717CF30E020E047E050E05F
:101B7000D8011C968D919C918E0D9F1DFC01E20F4A
:101B8000F31FD080BA01621B730B860F971FDC0115
:101B90008C918083D8011C96ED91FC91EE0DFF1D78
:101BA000E60FF71FD0822F5F3F4F2430310501F73A
:101BB000F2CEFC018281882329F130E020E047E069
:101BC00050E0D8011C968D919C918E0D9F1DFC01BB
:101BD000E20FF31FD080BA01621B730B860F971FB1
:101BE000DC018C918083D8011C96ED91FC91EE0D67
:101BF000FF1DE60FF71FD0822F5F3F4F24303105C6
:101C000001F7C9CEB12CA12CF801C484D584CE0C27
:101C1000DF1CCA0CDB1CD6018C910E941D03F6014F
:101C20008083FFEFAF1ABF0A28E0A216B10461F764
:101C3000B2CECE0101965C014C0187E0C82E4C2D3E
:101C40006D2DC8010E941B07D4018D934D01CA94CC
:101C5000BFEFCB12F4CFC12CF50121915F014C2DC8
:101C60006D2DC8010E949E0BC394F8E0CF12F4CFF3
:101C700092CE90E080E0D8011C96ED91FC91EE0DA3
:101C8000FF1DE80FF91F20812095208301968830E1
:101C9000910589F780CECF92DF92EF92FF920F935A
:101CA0001F93CF93DF93EC01DD24D394F12CE12C2F
:101CB00001E010E0B9E0CB2ECE010E94440A980169
:101CC0000E2C02C0220F331F0A94E2F7E0E090E0EE
:101CD0008B85E81798F5EC9DA0011124AC85BD8596
:101CE000A40FB51F18966C9170E062237323672BC5
:101CF00019F16E2F70E08150990B861B970B880F9E
:101D0000991FAE85BF85A80FB91FDC92AC85BD8534
:101D1000A40FB51FAE0DBF1DFC918B858150990B93
:101D2000861B970B880F991F4E855F85840F951F23
:101D3000DC011196FC9391E0EF5FCACF992319F073
:101D4000CE010E944507BFEFEB1AFB0AD39488E04F
:101D5000E816F10409F0B0CF80E099E02B858217F6
:101D600048F4EC85FD85899FE00DF11D1124108656
:101D70008F5FF4CFDF91CF911F910F91FF90EF9084
:101D8000DF90CF900895CF93DF93C9E078E05FEFC5
:101D90004617B0F06C9F90011124FC01A485B58515
:101DA000A20FB31FFD01D72F1192DA95E9F7DC01DD
:101DB0001C96ED91FC91E20FF31F50876F5FE8CF07
:101DC000FC012489222321F0DF91CF910C944B0E4A
:101DD000DF91CF9108956F927F928F929F92AF92F1
:101DE000BF92CF92DF92EF92FF920F931F93CF9308
:101DF000DF93CDB7DEB729970FB6F894DEBF0FBEDD
:101E0000CDBF8C01E62EF42E5901D12C461708F4D3
:101E1000D5C0DC015496DC90549754961C92243023
:101E20003105B0F522303105C8F52130310509F40E
:101E3000DBC0D80155968C91882309F486C06F2D9C
:101E4000660F660F660F695FC8010E942207C82EE1
:101E5000AE2CB12C8F2D0F2C000C990B8A159B05E5
:101E60000CF489C050E040E06F2DC8010E94830C43
:101E700099249A949F0C47E0692DC8010E941B0782
:101E8000282F40E06F2DC8010E94850BF92CE2CF6E
:101E90002430310561F02830310558F6A5016E2D4A
:101EA000C8010E94830CE394FE14C0F77EC0642F27
:101EB00070E0AE2CB12C4B018A189B08BFEF8B1A37
:101EC0009B0A97FE03C0EFEF8E1A9E0A95948794A3
:101ED000712C29E0C22E472D50E0481559050CF011
:101EE000CFC0F80124853585FA01EA0DFB1DCE9E91
:101EF000C001CF9E900D1124820F931FFC01DE01C3
:101F000011966C2C01900D926A94E1F7FB01E41B91
:101F1000F50BCE9EA001CF9E500D1124F901E40FC8
:101F2000F51FDC018C2D01900D928A95E1F7F801E7
:101F3000A485B585A40FB51FFE0131968C2D0190A7
:101F40000D928A95E1F77394C6CFF801A288B38801
:101F5000A114B10471F06F2D660F660F660F695FF3
:101F6000C8010E942207482F70E060E08F2DF50124
:101F70000995C12C6DCFD8015096ED91FC915197E8
:101F8000309749F055968C91811105C070E060E062
:101F90008E2D0995C82EB50183E0660F771F8A95AF
:101FA000E1F74C2DC8010E94940BD8015496DC92A5
:101FB000DD2009F46FC0C8010E944B0E8D2D2996BB
:101FC0000FB6F894DEBF0FBECDBFDF91CF911F914A
:101FD0000F91FF90EF90DF90CF90BF90AF909F90C8
:101FE0008F907F906F900895FC0185898823A9F1D7
:101FF000660F660F660FC8010E942207C82E41E0D7
:1020000050E06E2DC8010E94830CBB24B394BE0C1B
:1020100040E06B2DC8010E941B07282F47E06E2D62
:10202000C8010E94850BEB2CFB1448F7D801509691
:10203000ED91FC915197309749F055968C91811113
:1020400005C061E070E08F2D0995C82EB8E0FB9EB9
:10205000B0011124695F7F4FA4CFA288B388A11477
:10206000B10461F0660F660F660FC8010E94220777
:10207000482F61E070E08E2DF5010995C12CBFCF8E
:1020800044E050E06E2DC8010E94830CE394FE14DE
:10209000B8F78BCFDD24D39491CF8F929F92AF92DC
:1020A000BF92CF92DF92EF92FF920F931F93CF9345
:1020B000DF93EC01F62E8D859E85442309F4E0C064
:1020C0008E01095C1F4F35E0C32ED12C8230910563
:1020D000E9F050F08330910509F441C0049709F408
:1020E000A8C085E090E00FC0BE01695C7F4FCE01C3
:1020F0000E94D109811103C086E090E004C019AEAE
:1021000018AE83E090E09E878D870DC01FAA88A936
:102110008823B1F0DE86CD868D859E852FA921117D
:1021200016C0059799F7DF91CF911F910F91FF90FE
:10213000EF90DF90CF90BF90AF909F908F900895D9
:10214000B801CE010E948D098111E6CFE3CF05973A
:1021500051F319AE18AE83E090E09E878D878FA96A
:10216000882329F121E02F2530E04CA16BA1888143
:1021700099810E94EB0E888199816D8D2CA93DA9D2
:1021800048AD59AD662301F1BA016F5F7F4F79AF5A
:1021900068AF240F351FF90140814095FF20F1F011
:1021A0006BA1F8E06F9FB00111240E94940B2FA93E
:1021B00088AD99AD2817190609F0B5CF88A9811106
:1021C00015C082E090E09FCFBA016F5F7F4F79AF7B
:1021D00068AF240F351FF9014081E0CF6CA128E0E2
:1021E000629FB0011124695F7F4FDFCF29893A894F
:1021F000FF20B1F08F859889A901481B590BCA01AE
:1022000001962BA158E0259F80199109112499AFBF
:1022100088AF181619060CF064CF84E090E073CFF5
:102220008CA1E8E08E9FC00111240796821B930BBE
:10223000EECF21E0262730E04CA16BA18881998167
:102240000E94EB0E888199814D8D4195FF2081F090
:102250006BA1F8E06F9FB00111240E94940B88AD30
:1022600099AD019799AF88AF892B09F05CCF39CF31
:102270006CA128E0629FB0011124695F7F4FEDCF10
:102280008430910539F0059709F036CF84E090E06D
:102290009E878D8721E02F2530E04CA16BA188819E
:1022A00099810E94EB0E888199814D8D4195FF2087
:1022B00009F445C06BA138E0639FB00111240E946E
:1022C000940B0CA110E0ABA0B12C6801CA18DB087C
:1022D0008FEFC81AD80A23E0CC0CDD1C2A95E1F751
:1022E0008E8D9F8D009721F08C159D0508F46C0153
:1022F0000F5F1F4F83E0000F111F8A95E1F793E0F6
:10230000AA0CBB1C9A95E1F7FF2021F1450174014D
:10231000EA18FB0880169106DCF5682D8881998102
:102320000E94220790E02D8D222389F02FEF30E0CC
:102330008217930769F5EFEF8E1A9E0AE8CF6CA11A
:1023400058E0659FB0011124695F7F4FB8CF30E03E
:1023500020E0EECF01501109F12CE12C0A151B05EC
:10236000BCF0602F888199810E94220790E02D8D1A
:10237000222359F02FEF30E08217930749F40150E0
:102380001109FFEFEF1AFF0AE9CF30E020E0F4CFA8
:10239000EC14FD0408F0B0CEC6CECF93DF93EC0171
:1023A0004CA16BA1461720F0888199810E94C30E31
:1023B0008D8D882351F027E030E04CA16BA18881FE
:1023C0009981DF91CF910C94EB0EDF91CF9108951D
:1023D000CF92DF92EF92FF920F931F93CF93DF93F1
:1023E000EC010E94CD11C988DA887E0187E3E80EEE
:1023F000F11CB701CE010E94D10919AE18AE8601B9
:102400008B899C89081719077CF18FA928AD39ADF4
:102410008217130611F081110AC01FAA88A9811121
:1024200004C0B701CE010E948D0919AE18AE8FA964
:10243000882331F38881998148AD59AD9A012F5F86
:102440003F4FECA9FDA9E40FF51F4D8D39AF28AF23
:10245000442341F040814095B8010E94940B015003
:102460001109CECF4081F8CFDF91CF911F910F910D
:10247000FF90EF90DF90CF900895FF920F931F93FE
:10248000CF93DF93EC01F62E8D859E85442309F4CE
:1024900062C08430910530F5019758F18D859E8595
:1024A000059721F483E090E09E878D87CE010E94FE
:1024B000E8110DA11EA12FA18AA59BA5820F911D38
:1024C00027FD9A9580179107E1F04D8D4195B80150
:1024D000888199810E94940B8FA1080F111D87FD9F
:1024E0001A95E9CF0597D1F285E090E09E878D8718
:1024F0002CC0CE010E94760583E090E09E878D87F8
:10250000CDCFFF2069F06DA17EA10617170741F01E
:102510004D8D81E048274195888199810E94940BD7
:102520008DA19EA12FA1022E000C330B4AA55BA505
:10253000420F531F8417950721F445E050E05E8752
:102540004D87820F931F9EA38DA3DF91CF911F9183
:102550000F91FF9008958430910500F5019700F1E7
:10256000CE010E94E81108A519A56DA17EA18FA139
:10257000082E000C990B9B01280F391F20173107DB
:10258000B9F04D8D4195B801888199810E94940BD5
:102590008FA1080F111D87FD1A95E7CF059751F5FB
:1025A000CE010E94760583E090E09E878D87D8CF8C
:1025B000FF2079F02AA53BA5820F931F68177907A2
:1025C00041F04D8D81E048274195888199810E9495
:1025D000940B8DA19EA12FA1022E000C330B4AA5B6
:1025E0005BA5420F531F8417950709F0AACF46E059
:1025F00050E0A5CF86E090E079CFCF92DF92EF92C6
:10260000FF921F93CF93DF93EC01D42E8D859E858F
:10261000662309F458C084309105A8F50197D0F1DC
:10262000CE010E94E8112DA13EA12830310569F1AB
:10263000E8A4F9A481E090E001C0880F2A95EAF7A8
:10264000182FD11010952FA18AA59BA5820F911D3F
:1026500027FD9A958E159F0549F1C880D9806E2D6A
:10266000C6010E9422079D8D412F9923E9F04095D4
:10267000482BB701C6010E94940B8FA1E80EF11CF4
:1026800087FDFA94E0CF059759F285E090E09E87A8
:102690008D8711C0CE010E9476051EA21DA283E087
:1026A00090E09E878D87BCCF4823E3CF8DA19EA16C
:1026B00001969EA38DA3DF91CF911F91FF90EF9084
:1026C000DF90CF9008958430910598F5019798F1A7
:1026D000CE010E94E8118DA19EA110E097FD05C0DA
:1026E00011E001C0110F8A95EAF7E8A4F9A4D1100E
:1026F00010952FA18AA59BA5820F911D27FD9A9564
:102700008E159F0531F1C880D9806E2DC6010E94BB
:1027100022079D8D412F9923D1F04095482BB70179
:10272000C6010E94940B8FA1E80EF11C87FDFA945C
:10273000E0CF0597C1F4CE010E94760587E090E0D6
:102740009EA38DA383E090E09E878D87C1CF482311
:10275000E6CF8DA19EA197FF04C026E030E03E8722
:102760002D870197A6CF86E090E091CFFF920F933F
:102770001F93CF93DF93EC01F42E8D859E85662306
:1027800009F444C08430910538F5019760F1CE0119
:102790000E94E8112DA13EA18AA59BA52817390703
:1027A000E9F008A519A58FA1082E000C990B2DA101
:1027B0003EA14AA55BA5480F591F4017510709F4D0
:1027C00064C0F11018C002171307C1F48FA1080FDD
:1027D000111D87FD1A95E7CF0597C9F285E090E0B6
:1027E0009E878D8756C0CE010E94760583E090E0DB
:1027F0009E878D87CCCF0217130741F74D8D4195EA
:10280000B801888199810E94940BE0CF84309105B2
:1028100000F5019700F1CE010E94E81108A519A565
:102820004AA55BA58FA1082E000C990B2DA13EA1F6
:10283000BA01680F791F6017710701F1F11013C019
:102840000217130799F48FA1080F111D87FD1A9520
:10285000E7CF059721F5CE010E94760583E090E051
:102860009E878D87D8CF0217130769F74D8D419545
:10287000B801888199810E94940BE5CF2417350710
:1028800024F446E050E05E874D87820F931F9EA39D
:102890008DA3DF91CF911F910F91FF90089586E056
:1028A00090E09ECFCF92DF92EF92FF920F931F9313
:1028B000CF93DF93EC01162F8D859E85442309F479
:1028C00058C084309105B0F5019708F43AC0CE01A4
:1028D0000E94E8112DA13EA190E080E0111102C0FC
:1028E0008FEF90E02817390739F1E8A4F9A42FA158
:1028F0008AA59BA5820F911D27FD9A958E159F0590
:1029000081F10D8DC880D9806E2DC6010E942207ED
:10291000011180954DA11111409548230111409559
:10292000B701C6010E94940B8FA1E80EF11C87FD30
:10293000FA94DDCF059759F285E090E09E878D8768
:1029400071C0CE010E9476058FEF90E0111102C098
:1029500081E090E09EA38DA383E090E09E878D8729
:10296000B6CF8DA19EA1112309F457C095958795E7
:1029700057C08430910550F5019750F1CE010E9467
:10298000E811E8A4F9A42FA18AA59BA5820F911DA7
:1029900027FD9A958E159F0559F10D8DC880D98018
:1029A0006E2DC6010E942207011180954DA11111C3
:1029B0004095482301114095B701C6010E94940B30
:1029C0008FA1E80EF11C87FDFA94DDCF0597C1F4C5
:1029D000CE010E94760581E090E0111102C08FEFD8
:1029E00090E09EA38DA383E090E09E878D87C6CF65
:1029F0008DA19EA1111107C0009709F0B7CF06C0A5
:102A000086E090E09BCF8F3F910539F426E030E0DF
:102A10003E872D87112309F4A9CF880F991F816064
:102A20009EA38DA3DF91CF911F910F91FF90EF9007
:102A3000DF90CF900895EF92FF920F931F93CF9363
:102A4000DF93EC01162F8D859E85442309F488C001
:102A50008330910528F00397B1F185E090E02AC01A
:102A600069897A898B899C899B01281B390BC9014B
:102A700037FD01969595879501969EA38DA3112309
:102A8000B9F04D8D11E041274195681B790B888184
:102A900099810E94940B4D8D412741956B897C89CA
:102AA0008DA19EA1680F791F888199810E94940B46
:102AB00083E090E09E878D87DF91CF911F910F91EA
:102AC000FF90EF9008958DA19EA197FDC6CFCE01F6
:102AD0000E94E811F12CE12C6DA17EA1E616F7060B
:102AE000C4F44D8D41956B897C896E0D7F1D888165
:102AF00099810E94940B4D8D419569897A896E194F
:102B00007F09888199810E94940B3FEFE31AF30AB1
:102B1000E3CF615071097EA36DA3112369F277FDA4
:102B2000CBCF4D8D11E0412741958B899C89680F52
:102B3000791F888199810E94940B4D8D4127419581
:102B400069897A898DA19EA1681B790B88819981F9
:102B5000DF91CF911F910F91FF90EF900C94940B08
:102B60008330910531F108F077C0019708F477C000
:102B7000CE010E94CD11CE010E94E8111EA21DA21D
:102B8000112399F04D8D01E04027419569897A899B
:102B9000888199810E94940B4D8D402741956B89C6
:102BA0007C89888199810E94940B83E090E09E87C4
:102BB0008D872DA13EA169897A898B899C89AB017A
:102BC000481B590BCA0157FD0196959587958217A9
:102BD00093070CF444C04D8D4195621B730B8881A3
:102BE00099810E94940B4D8D41956B897C898DA1B3
:102BF0009EA1680F791F888199810E94940B2DA155
:102C00003EA12F5F3F4F3EA32DA3112309F454CFC4
:102C100069897A898B899C89AB01481B590BCA0148
:102C200057FD019695958795821793070CF444CF2D
:102C30004D8D11E041274195621B730B888199816D
:102C40000E94940B4D8D412741956B897C898DA104
:102C50009EA1680F791F7ACF059709F489CF86E086
:102C600090E028CFCF92DF92FF920F931F93CF93E4
:102C7000DF93EC01F62E8D859E85442309F484C0F4
:102C80008330910570F0039751F185E090E09E87C5
:102C90008D87DF91CF911F910F91FF90DF90CF90A3
:102CA00008951EA21DA2CE010E94CD11FF2099F011
:102CB0004D8D11E04127419569897A8988819981F3
:102CC0000E94940B4D8D412741956B897C898881A9
:102CD00099810E94940B83E090E09E878D87CE01BE
:102CE0000E94CD11CE010E94E8110B891C898989AF
:102CF0009A89801B910B97FD01966C01D594C7941E
:102D00008DA19EA1080F191FC816D9060CF4BDCFBE
:102D10000F5F1F4F69897A898DA19EA19B01281B96
:102D2000390B0217130744F44D8D4195B801888182
:102D300099810E94940BECCF01969EA38DA3FF2056
:102D400009F4A7CFC816D9060CF4A3CF4D8D11E016
:102D500041274195681B790B888199810E94940BCA
:102D60004D8D412741956B897C898DA19EA1680F6E
:102D7000791F88819981DF91CF911F910F91FF90E9
:102D8000DF90CF900C94940B83309105D1F1A0F596
:102D90000197A0F189899A892B893C89821B930B21
:102DA00097FD0196959587959EA38DA3CE010E94D0
:102DB000CD11CE010E94E811FF20D9F04D8D11E018
:102DC0004127419569897A898DA19EA1681B790B5C
:102DD000888199810E94940B4D8D412741956B8983
:102DE0007C898DA19EA1680F791F888199810E949D
:102DF000940B83E090E04BCF059761F286E090E082
:102E000046CF8DA19EA197FDF9CF4D8D4195698942
:102E10007A89681B790B888199810E94940B4D8D6A
:102E200041956B897C898DA19EA1680F791F88814E
:102E300099810E94940B8DA19EA101979EA38DA3C1
:102E4000FF2009F426CF97FD24CF4D8D11E04127B7
:102E5000419569897A897ECFCF92DF92EF92FF9276
:102E60000F931F93CF93DF93EC01D62EC42E7901DD
:102E700080E04617E0F02A30310508F069C0CE0145
:102E80000E94440A92E0E916F10409F453C0C0F428
:102E9000E114F10429F1F1E0EF16F10409F443C063
:102EA000D394CD1478F7CE010E94450781E0DF91DD
:102EB000CF911F910F91FF90EF90DF90CF900895E9
:102EC00083E0E816F104E9F194E0E916F10441F732
:102ED00081E00115110509F480E0819599E006C0B3
:102EE00081E00115110509F080E09CE04D2D50E0D6
:102EF0002B852150330B241B350B220F331F6E857E
:102F00007F85260F371FF90190832B852150330BC6
:102F1000241B350B220F331F4E855F85240F351F71
:102F2000F9018183BDCF802F083011050CF087E0B7
:102F30009BE0DCCF802F003111050CF08FE09AE090
:102F4000D5CF81E00115110509F480E09FE0CECFD7
:102F500081E00130110509F080E0FBE0EF16F1049B
:102F600049F08C8B0130110509F0A0CFCE010E94F1
:102F70004B0E9CCF8D8B9ACFAF92BF92CF92DF92A8
:102F8000EF92FF920F931F93CF93DF93EC01F62EF6
:102F90008D859E85442309F46EC08430910580F5AB
:102FA0000197A8F1CE010E94CD11CE010E94E81137
:102FB000CBA088E0C89E60011124EE24E394F110B8
:102FC00002C050E8E52E0DA11EA18CA190E0019653
:102FD00043E0880F991F4A95E1F7C816D906ACF56A
:102FE000A880B9806C2DC5010E942207101624F517
:102FF000FF2001F1880F9D8D91118E290150F6CF90
:10300000059781F285E090E09E878D8729C087E053
:1030100090E09EA38DA310E000E02BE030E04CA1F7
:103020006BA1888199810E942C1783E090E09E8794
:103030008D87B8CF8695DFCF482FB601C5010E9496
:10304000940B8FEFC81AD80ABECF0115110521F4D1
:1030500085E090E09E878D87015011091EA30DA386
:10306000DF91CF911F910F91FF90EF90DF90CF9064
:10307000BF90AF9008958430910560F5019760F19D
:103080000BA188E0089F8001112430E8E32EF110A5
:1030900002C0EE24E3948CA190E0019623E0880F17
:1030A000991F2A95E1F708171907FCF4C880D98001
:1030B000602FC6010E942207482FFF20A1F04695ED
:1030C0008D8D81114E29B801C6010E94940B0F5FAE
:1030D0001F4FE1CF0597B1F41EA21DA283E090E03F
:1030E0009E878D87CDCF440FEBCF8DA19EA18730DA
:1030F000910521F426E030E03E872D8701969EA3BE
:103100008DA3AECF86E090E07FCFAF92BF92CF92FB
:10311000DF92EF92FF920F931F93CF93DF93EC0117
:10312000F62EE42E8D859E85222309F4D9C08430A5
:10313000910588F50197B0F1CE010E94CD11CE0125
:103140000E94E8110DA11EA1EE2009F464C0EE2436
:10315000E394F11002C070E8E72ECDA0DEA08CA1B0
:1031600090E0019663E0880F991F6A95E1F70817D0
:103170001907BCF5A880B980602FC5010E942207FD
:103180009C2D191624F5FF2001F1880F2D8D21119A
:103190008E299150F6CF059779F285E090E09E87D1
:1031A0008D8793C087E090E09EA38DA310E000E0A0
:1031B0002BE030E04CA16BA1888199810E942C17F3
:1031C00083E090E09E878D87B7CF8695DFCFB801EB
:1031D0006C197D09482FC5010E94940B0F5F1F4F8A
:1031E000BCCF10E000E08DA19EA1081719070CF0DC
:1031F00061C04D8D41956CA128E0629FB001112402
:10320000695F7F4F601B710B888199810E94940BCD
:103210000F5F1F4FE8CF8CA138E0839FC0011124BE
:103220009C01201B310B8901085F1F4FEE24E394A2
:10323000F11002C050E8E52ECDA0DEA08BA138E051
:10324000839FC001112408171907ECF0A880B980EA
:10325000602FC5010E9422079C2D191654F4FF20EF
:1032600031F0880F2D8D21118E299150F6CF869542
:10327000F9CFB8016C0D7D1D482FC5010E94940B3C
:1032800001501109D9CF10E000E08DA19EA10817CF
:10329000190784F44D8D41956BA188E0689FB001BA
:1032A0001124600F711F888199810E94940B0F5F18
:1032B0001F4FEBCF8DA19EA1009721F425E030E0B8
:1032C0003E872D8701979EA38DA3DF91CF911F91FC
:1032D0000F91FF90EF90DF90CF90BF90AF90089547
:1032E0008430910580F5019788F1EE20C1F10CA1A1
:1032F00028E0029F800111240A5F1F4F40E8B42E8E
:10330000F11002C0BB24B394C880D9808BA138E0EF
:10331000839FC0011124081719070CF450C0602FB7
:10332000C6010E942207482FFF20B9F046958D8DD7
:1033300081114B29B8016F5F7F4FC6010E94940B2A
:1033400001501109E1CF059709F059C01EA21DA235
:1033500083E090E09E878D87C8CF440FE8CF0BA114
:1033600088E0089F800111240F5F1F4F30E8B32EC3
:10337000F11002C0BB24B394C880D9808CA190E026
:10338000019623E0880F991F2A95E1F7081719077E
:10339000B4F4602FC6010E942207482FFF2069F075
:1033A00046958D8D81114B29B80161507109C60177
:1033B0000E94940B0F5F1F4FDFCF440FF2CF888125
:1033C00099814D8D4195EE2091F06BA128E0629F8F
:1033D000B00111240E94940B8DA19EA1873091050C
:1033E00021F426E030E03E872D8701966CCF6CA15A
:1033F00038E0639FB0011124695F7F4FEBCF86E017
:1034000090E0CDCE0F931F93FC0161A3062F10E037
:1034100022E030E044A163A1808191810E942C17B9
:103420001F910F9108950F931F939B018A01FC0137
:103430004385415060E00E942C171F910F91089521
:103440002F923F924F925F926F927F928F929F92B4
:10345000AF92BF92CF92DF92EF92FF920F931F93A2
:10346000CF93DF93CDB7DEB72D970FB6F894DEBFBD
:103470000FBECDBF9A8389837D836C83DC019896D0
:103480008C919897882309F48AC09596ED91FC91C8
:103490008689978975A764A7E981FA8120A52223E7
:1034A00029F005A0F6A1E02D978B868BA981BA8122
:1034B00098968C919897882349F09596ED91FC9178
:1034C000108617821286118614861386E981FA8186
:1034D00080A5882359F005A0F6A1E02D81E090E0B9
:1034E000918F808F138E128E1686158629813A81D0
:1034F0002C5F3F4F3F832E8306E010E0E5E06E2E09
:10350000712CF3E04F2E512C50E040E06AE070E067
:103510008E819F810E94131A212C1B82A981BA815E
:1035200098968C919897281610F00C941E239596D7
:10353000ED91FC9124E4229EE00DF11D1124FD8704
:10354000EC8712A22585368581E02630310509F405
:10355000CBC1848D882331F187819085B0E0A0E0D4
:103560002530310529F12FB7F8944091140250917C
:10357000150260911602709117022FBFEC85FD8530
:10358000C380D480E580F6804C195D096E097F09FF
:10359000481759076A077B0758F580E0A5C181E005
:1035A00090E07ACFAC85BD8519968D919C91D6CF50
:1035B0002FB7F894409114025091150260911602B1
:1035C000709117022FBFEC85FD85C380D480E58004
:1035D000F6804C195D096E097F09C384D484F12CEF
:1035E000E12C4C155D056E057F0508F0BCCFD5CFED
:1035F000AC85BD8512969C909110CFCF2FB7F894D3
:103600008091140290911502A0911602B0911702B8
:103610002FBFEC85FD8583839483A583B68381E0EA
:1036200082A3A4A4B5A4A114B10409F453C185854F
:103630009685009709F433C0069709F44BC1AC8511
:10364000BD855C963C905C97332009F4F8C0589691
:10365000ED91FC913197EC31F10508F095C3ED5CEB
:10366000F44E0C94DE2A491C521C791C7C1C831CD1
:103670005521861CFC1DC71E0A20541F9420D222EF
:10368000D922E322DC22EC22E522EE22F522F822E6
:10369000FF2202230A230D23112314231B23AC85AD
:1036A000BD859F96BC92AE929E979496EC90B8E0A2
:1036B000EB9E70011124F70137967F01AC85BD8523
:1036C00093968C91B8E08B9FE018F1081124EFEFEE
:1036D000EE1AFE0AD12CC12CD5016D915D01662335
:1036E000C1F0EC85FD8524A935A970E043A9CF017F
:1036F0000E94150990E0C80ED91E892B69F3D501E7
:103700008C91882349F3EC85FD8586A9C80ED11CD0
:10371000E3CFAC85BD855096DC92CE921F9756962E
:103720008D919C918130910509F455C028F0029744
:1037300071F1992493941DC0EC85FD8584A190E0DE
:10374000019673E0880F991F7A95E1F79C0121504B
:103750003109328B218BEC14FD0490F483A1F8E045
:103760008F9FC0011124AC85BD8554969C938E9388
:10377000539781E09826EC85FD85958A848F5FCFED
:103780008C199D09EC85FD85948B838BD2CFAC85FC
:10379000BD8593968C91B8E08B9FC0011124EC8578
:1037A000FD85948B838BEC14FD0468F484A1F8E010
:1037B0008F9FC00111240796AC85BD8552969C93BE
:1037C0008E935197D6CF0197C80ED91EEC85FD85F3
:1037D000D28AC18AAECFAC85BD8593962C91B8E0D4
:1037E0002B9F90011124EC14FD0498F4EC85FD85C9
:1037F00084A1F8E08F9FC00111240796AC85BD8598
:1038000052969C938E93519754963C932E93539734
:10381000B0CFEC18FD08F694E794E20EF31EEC85A9
:10382000FD85F48AE38AF1E0CF1AD108CE0CDF1CC3
:10383000AC85BD855296DC92CE9251977ACFAC85FD
:10384000BD855A96ED91FC913197EC31F10508F068
:103850009BC2E35DF34E0C94DE2A391F521C791C87
:103860007C1C831C5521861CFC1DC71E0A20541F6E
:103870009420D222D922E322DC22EC22E522EE227D
:10388000F522F822FF2202230A230D2311231423F9
:103890001B238C859D850E94E811EC85FD8576862D
:1038A000658606C0432D61E08C859D850E94BC170E
:1038B000AC85BD855C968C915C971D962D913C9155
:1038C000882329F081E02530310509F480E0EC857A
:1038D000FD85848F81E0AC85BD851D962D913C9141
:1038E0002630310509F059CEBB81B82BBB83239418
:1038F00015CE432D60E0D8CF432D61E08C859D85AA
:103900000E944D10D5CF432D60E0F8CFEC85FD85AA
:1039100085859685332009F4EAC07F01F7E3EF0E31
:10392000F11C82309105A1F130F0039709F45BC0DE
:10393000AC85BD8566C26C857D85695C7F4F8C8555
:103940009D850E94D109811103C0AC85BD85CAC681
:103950008C859D850E94CD11EC85FD8511AE10AE44
:1039600083A1F8E08F9FC0011124AC85BD85969698
:103970009C938E93959751968D919C9152979B967F
:103980009C938E939A971E965C924E921D9790CF21
:10399000EC85FD8517AA80A9882381F0AC85BD85BB
:1039A0001E967C926E921D97EC85FD858585968589
:1039B00027A921110BC0059759F77ACFB7018C853C
:1039C0009D850E948D098111EFCFE8CF059709F4FD
:1039D0006FCFAC85BD85D9961C921E92D8971E9646
:1039E0005C924E921D97EC85FD8565A176A182A51E
:1039F00093A504A8F5A9E02DAC85BD85D8962D9199
:103A00003C91D997E20FF31F40816817790751F471
:103A10008D919C9111975D962C91211140950E945A
:103A2000940B3BCF411135C0AC85BD8596969C93D8
:103A30008E939597EC85FD8585A196A122A533A54A
:103A400082179307C1F420AD31AD43A1F8E04F9F39
:103A5000A0011124AC85BD8596965C934E939597F5
:103A60002F5F3F4FD9963C932E93D89701979B9603
:103A70009C938E939A97EC85FD8527A980AD91AD97
:103A80002817190609F014CF82E090E09687858701
:103A90000FCFEC85FD85458D4195808191810E94F8
:103AA000940BAC85BD8595966D917C9196976F5FD3
:103AB0007F4F96967C936E9395978D919C911197DD
:103AC0005D96EC915D97D4962D913C91D597D896C3
:103AD0004D915C91240F351FEE2331F0F9014081A7
:103AE00040950E94940BA6CFD9014C91FACF81301A
:103AF000910508F42ACF8430910568F0059709F004
:103B000024CFEC85FD858189928993A782A796A30E
:103B100085A356864586AC85BD85CD90DC901197F2
:103B20005D968C9188248A94912C811102C0912CED
:103B3000812CEC85FD85A388B488AC85BD859596E0
:103B4000ED90FC906E2DC6010E942207EC85FD854C
:103B500022A533A58815190451F42A153B053CF01C
:103B6000C901019793A782A736A325A3E6CF2F5FAC
:103B70003F4F2A153B050CF4E8CEEC85FD8524A1CA
:103B8000F8E02F9F90011124295F3F4FE216F306C2
:103B90003CF4B7016F5F7F4F482FC6010E94940B22
:103BA000AC85BD855D964C915D97419595966D91DF
:103BB0007C9196978D919C910E94940BEC85FD854C
:103BC00025A136A12F5F3F4F36A325A384A190E006
:103BD000019643E0880F991F4A95E1F728173907A6
:103BE00009F066CE82A593A59C012150310933A727
:103BF00022A796A385A35CCEEC85FD858585968559
:103C0000332009F467C08430910508F042C0019761
:103C100008F443C08C859D850E94CD118C859D85BF
:103C20000E94E811EC85FD8593A0990C990C990CE4
:103C300088248394AC85BD859596ED90FC909697ED
:103C400094968C91949790E0019623E0880F991FA9
:103C50002A95E1F7A92CB12CA816B90674F5CD90D8
:103C6000DC90692DC6010E942207482F50E087E0B2
:103C700090E08E199F093320D9F002C055954795E1
:103C80008A95E2F7B501C6010E94940B38249394FB
:103C9000D1CF059709F4BECF00CEAC85BD859696F1
:103CA0001C921E9295971E965C924E921D97B2CFD3
:103CB00001C0440F8A95EAF7E5CFBFEFEB1AFB0A84
:103CC000EC85FD85F6A2E5A2F8E0EF16F10409F017
:103CD000EFCD2ECE8430910598F50197A0F1AC85FB
:103CE000BD8593969C90990C990C990C882483948B
:103CF00033243394EC85FD85E5A0F6A084A190E003
:103D00000196B3E0880F991FBA95E1F7A92CB12C61
:103D1000A816B9065CF5C080D180692DC6010E9445
:103D20002207482F50E08820D9F001C0440FEA94C0
:103D3000EAF7B501C6010E94940B83249394DACF6D
:103D4000059709F002CEE1E0F0E0AC85BD859696DE
:103D5000FC93EE9395971E965C924E921D97BFCF63
:103D600002C055954795EA94E2F7E3CFFFEFEF1ACB
:103D7000FF0AAC85BD859696FC92EE929597B8E0C9
:103D8000EB16F10409F094CDEC85FD8508C4EC85B3
:103D9000FD8585859685332009F45AC084309105C8
:103DA00000F58230910500F5009781F1019709F047
:103DB000BFCDAC85BD8595966D917C919697CB01D5
:103DC000019696969C938E939597CD010E94021A28
:103DD0008C859D850E94E811EC85FD85568645867B
:103DE00067CD059709F0A4CDAC85BD8595966D91FD
:103DF0007C9196979A968D919C919B9786179707A1
:103E0000ECF41E967C926E921D9752CDAC85BD85CA
:103E100096961C921E92959791968C91919790E010
:103E20009B969C938E939A97CD010E94CD1121E091
:103E300030E0EC85FD85368725873ACDCB010196AC
:103E4000EC85FD8596A385A3CF010E94021A30CD93
:103E50008430910598F40197A0F0EC85FD8565A16B
:103E600076A1CB01019777FFEBCF62A5CF010E942E
:103E7000021A8C859D850E94CD1167CD059709F0AA
:103E800064CDEC85FD8561A1862F90E093A782A784
:103E900096A385A3CF010E94021A8C859D850E945E
:103EA000E811AC85BD856FCDEC85FD858585968552
:103EB0008230910509F45DC048F4009769F00197DC
:103EC000B9F031102EC186E090E0E6C08330910554
:103ED00009F492C00597A9F7AC85BD8596961C920A
:103EE0001E929597E1E0F0E01E96FC93EE931D97ED
:103EF000AC85BD8595968D919C91969701969696E9
:103F00009C938E9395979396EC90B8E0EB9E7001FE
:103F10001124DD24D394EC85FD8525A136A184A14F
:103F200090E00196A3E0880F991FAA95E1F7E816A3
:103F3000F90694F4C701837099278217930744F414
:103F4000458D4D254195B701808191810E94940B4B
:103F5000FFEFEF1AFF0ADFCF82E090E02430310557
:103F600009F0A6CCAC85BD851E969C938E931D97BB
:103F70009FCC8C859D850E94CD11332021F08C85AE
:103F80009D850E94E811EC85FD8585A196A101978C
:103F900096A385A3E3A0F8E0EF9E70011124DD2431
:103FA000D394AC85BD8595962D913C91969794962A
:103FB0008C91949790E00196F3E0880F991FFA9501
:103FC000E1F7E816F906A4F4C70183709927821770
:103FD000930754F45D964C915D974D254195B7013B
:103FE0008D919C910E94940BBFEFEB1AFB0AD9CFE5
:103FF000232B09F05DCCF0CE8C859D850E94CD11E0
:10400000332009F412C18C859D850E94E81185E05A
:1040100090E0A8CFAC85BD851D968D919C91823096
:10402000910509F43CC038F08330910509F46EC065
:10403000059709F0F8C0EC85FD85E3A0F8E0EF9E58
:1040400070011124AC85BD8594968C91949790E075
:104050000196E3E0880F991FEA95E1F7E816F90663
:10406000CCF45D96BC905D97CD90DC906E2DC60132
:104070000E942207B110809545E5E0FE4AEA482BF0
:10408000B1104095B701C6010E94940BBFEFEB1A27
:10409000FB0AD8CF82E090E0EC85FD85F7CC8C85DB
:1040A0009D850E94CD11332021F08C859D850E9435
:1040B000E811AC85BD859396EC90B8E0EB9E70015D
:1040C0001124EC85FD8584A190E0019673E0880FB2
:1040D000991F7A95E1F7E816F9060CF0E2CEB58C57
:1040E000C080D1806E2DC6010E942207B11080953C
:1040F0004AEAE0FE45E5482BB1104095B701C601FC
:104100000E94940BFFEFEF1AFF0ADBCF8C859D8591
:104110000E94CD11332009F4D6CE8C859D850E9456
:10412000E81185E090E0B8CFEC85FD858585968522
:104130008430910508F07CC0019708F47CC0EC85C0
:10414000FD8516A215A20E94EC294B015C010E947C
:10415000EC29688779878A879B87AC85BD8595968A
:10416000CD90DC90BFEFCB1ADB0AEC85FD85D6A2A3
:10417000C5A2C501B4012BE030E040E050E00E9450
:10418000442A70E09B01285F3D4F7901D901BC9022
:10419000688579858A859B8528E030E040E050E09D
:1041A0000E94442A8B2D90E0062E02C0959587959B
:1041B0000A94E2F780FF05C0B8E8CB16B3E1DB064E
:1041C00014F281E090E001C0880F6A95EAF7B82AFE
:1041D000F701B0828C859D850E94E811AC85BD8574
:1041E00096961C921E9295979396BC90BB0CBB0C16
:1041F000BB0CEC85FD8584A190E0019663E0880FFF
:10420000991F6A95E1F7CB2CD12CC816D90614F169
:10421000E8E0F2E081918F3F09F04ACB20E132E003
:104220002E173F07B9F73110F2CE86E090E09ACE14
:10423000059709F046CEE8E0F2E0119223E132E082
:104240002E173F07D1F7AC85BD851E965C924E9226
:104250001D9775CFAC85BD85ED90FC906B2DC7018A
:104260000E942207AC85BD859596ED91FC91E85F93
:10427000FD4F4081311001C040954823B601C70170
:104280000E94940BEC85FD8585A196A101968B304B
:10429000910521F096A385A3B394ABCFAC85BD85E2
:1042A00096961C921E929597F7CFAC85BD851D966C
:1042B0008D919C913110F6C18430910508F0EEC1CA
:1042C000019778F58C859D850E947605EC85FD85A6
:1042D00080A591A522A533A58217930724F431A7C1
:1042E00020A793A782A7AC85BD85DE968D919C9172
:1042F000DF97892B09F4F6C1EC85FD8583A1F8E0F1
:104300008F9FC00111240197AC85BD8596969C9323
:104310008E93959797961C9297971E965C924E92C5
:104320001D978C859D850E94E811EC85FD8585A1F2
:1043300096A1019696A385A3F12C6F01F1E4CF0E0F
:10434000D11CD6012C91EC85FD8565A176A1822F2B
:1043500090E0F21608F0E1C04F2D50E0641B750BA1
:1043600084A190E0019633E0880F991F3A95E1F718
:10437000681779072CF583A1F8E08F9FC0011124FD
:1043800068177907ECF0AC85BD858D919C911197EC
:1043900097963C919797320390011124420F531F37
:1043A000DE96ED91FC91DF97E40FF51F5D962C9161
:1043B000222309F4B0C0E4914E2F40950E94940B43
:1043C000F394BFCFEC85FD8517A284A190E0019600
:1043D00053E0880F991F5A95E1F796A385A3568657
:1043E00045868C859D850E94E811AC85BD85959696
:1043F0008D919C919697019796969C938E93959705
:10440000F12C6D01B0E4CB0ED11CF6012081AC85FE
:10441000BD8595966D917C919697F21608F03AC0FD
:10442000EF2DF0E06E0F7F1F94968C91949790E0A3
:10443000019643E0880F991F4A95E1F768177907BD
:104440002CF593968C91B8E08B9FC00111246817CE
:104450007907E4F0AC85BD858D919C911197979675
:104460004C9197974203A00111244E0F5F1FDC96D9
:10447000ED91FC91DD97E40FF51F5D962C912223C1
:1044800039F0E4914E2F40950E94940BF394BDCFE8
:104490004491FACF7B01B1E0EB1AF108EC85FD8580
:1044A00082A593A5E816F9065CF0458D4195B70104
:1044B000808191810E94940BF1E0EF1AF108EECF18
:1044C000AC85BD8597968C9197978F5F97968C93C7
:1044D0009797082E000C990BFD01EE5BFF4F208192
:1044E0002817190609F014F497961C92EC85FD859F
:1044F00083A1F8E08F9FC0011124D6012C91821B6B
:1045000091090197EC85FD8525A136A1281739076A
:1045100009F0CEC9C4C9449151CF7B01E81AF90A08
:10452000EC85FD8582A593A5E816F9065CF0458D1E
:104530004195B701808191810E94940BF1E0EF1ABF
:10454000F108EECFAC85BD8597968C9197978F5FDC
:1045500097968C939797082E000C990BFD01ED5BB5
:10456000FF4F20812817190609F014F497961C9222
:10457000EC85FD8584A1F8E08F9F90011124295FCF
:104580003F4FD6018C91820F932F911D0196EC85A0
:10459000FD8525A136A12817390709F089C9168795
:1045A000058786C9432D60E08C859D850E943D125C
:1045B0007FC9432D61E0F8CF41E0632D8C859D8557
:1045C0000E94B61375C940E0F8CF41E0632D8C8599
:1045D0009D850E94FD126CC940E0F8CF432D60E03C
:1045E0008C859D850E941B1563C9432D61E0F8CF22
:1045F000432D60E08C859D850E94321659C9432D5C
:1046000061E0F8CF232D41E061E08C859D850E941B
:1046100085184EC9232D40E0F7CF232D41E060E0FF
:10462000F4CF232D40E0FBCF432D61E08C859D85A9
:104630000E9452143DC9432D60E0F8CF41E050E0A4
:104640006AE070E08E819F810E94131AEB81E11174
:104650000C94841AEC81FD8101900020E9F73197D8
:10466000CF012C813D81821B930B2D960FB6F894C0
:10467000DEBF0FBECDBFDF91CF911F910F91FF9095
:10468000EF90DF90CF90BF90AF909F908F907F90F2
:104690006F905F904F903F902F900895059709F489
:1046A00011CE53C98430910510F5019708F099CEC9
:1046B0008C859D850E947605EC85FD8580A591A55C
:1046C00022A533A58217930724F431A720A793A727
:1046D00082A7AC85BD85DC968D919C91DD97892B59
:1046E00009F070CE1E961C930E931D97E1C8059796
:1046F00009F477CE1DC91F93CF93DF93EC01888512
:10470000882309F484C01FB7F89480919401811123
:1047100024C0E4ECF5E08491E8EDF5E09491E82F15
:10472000F0E0EE0FFF1FE055FA4FA591B491EC9128
:10473000E92321F461E08AE00E94A3048AE00E9458
:1047400035038CB580618CBD8CB580648CBD8DE0EB
:104750000E9435038BE00E943503809194018F5FA6
:10476000809394011FBF8F810E94350361E08F8188
:104770000E94A304198A188A1B8A1A8A1B8529E0B9
:10478000129FC00111240E94E42A9D878C87812FEB
:1047900090E0880F991F0E94E42A9F878E878E8958
:1047A0009F898856904039F088E690E09F8B8E8BE9
:1047B000CE010E94E70550E040E063E070E0CE01EA
:1047C0000E94131A47E050E061E070E0CE010E94C1
:1047D000131A47E050E062E070E0CE010E94131A25
:1047E00050E040E064E070E0CE010E94131A4B8577
:1047F000415060E0CE010E94C30E50E040E070E006
:1048000060E0CE01DF91CF911F910C94131A8D813E
:104810000E9435038E810E943503A5CF1F920F920F
:104820000FB60F9211242F933F934F935F936F9383
:104830007F938F939F93AF93BF93EF93FF938CE1FD
:1048400092E00E940F04FF91EF91BF91AF919F9171
:104850008F917F916F915F914F913F912F910F9029
:104860000FBE0F901F9018951F920F920FB60F92C8
:1048700011242F938F939F93EF93FF93E0912C023A
:10488000F0912D028081E0913202F091330282FD9D
:104890001BC09081809135028F5F8F73209136020B
:1048A000821741F0E0913502F0E0E45EFD4F958F14
:1048B00080933502FF91EF919F918F912F910F90EF
:1048C0000FBE0F901F9018958081F4CF1F920F920A
:1048D0000FB60F9211242F933F938F939F93AF9313
:1048E000BF938091140290911502A0911602B0918D
:1048F00017023091130223E0230F2D3758F501964C
:10490000A11DB11D209313028093140290931502F0
:10491000A0931602B0931702809118029091190289
:10492000A0911A02B0911B020196A11DB11D8093A6
:10493000180290931902A0931A02B0931B02BF9120
:10494000AF919F918F913F912F910F900FBE0F903C
:104950001F90189526E8230F0296A11DB11DD2CFF6
:104960001F920F920FB60F9211242F933F934F93E4
:104970005F936F937F938F939F93AF93BF93EF93C7
:10498000FF938091B900887F803609F44AC0F0F522
:10499000883209F4A5C018F5803109F499C0B8F43B
:1049A000882309F4F5C0883009F492C0FF91EF9193
:1049B000BF91AF919F918F917F916F915F914F9137
:1049C0003F912F910F900FBE0F901F901895883137
:1049D00009F486C0803251F78093E10114C080341D
:1049E00009F49BC040F48033B9F38833F9F680931F
:1049F000E10185ECAEC0803509F483C0883509F447
:104A000094C0883499F60E943B08D0CF883909F4C5
:104A10008AC038F5883729F050F4883611F080378D
:104A200029F683E08093E2011092E00155C08838B6
:104A300009F479C0803919F0803809F0B7CF809136
:104A4000E001803208F06FC0E091E00181E08E0F5C
:104A50008093E0018091BB00F0E0E054FE4F808342
:104A60003BC0803B39F0D0F4803A09F477C0883AF3
:104A700009F09CCF84E08093E2011092BF01109274
:104A8000BE01F0E0E0E009958091BE0181110FC008
:104A900081E08093BE0110929E0109C0803C09F420
:104AA000A8CF883C09F4A5CF883B09F07FCFE091DF
:104AB000BF0181E08E0F8093BF01F0E0E256FE4F10
:104AC00080818093BB009091BF018091BE0129C07D
:104AD000809107028093BB0085EC8093BC0066CF79
:104AE0009091060280910502981758F5E091060210
:104AF00081E08E0F80930602F0E0EB51FE4F808143
:104B0000E9CFE091060281E08E0F8093060280914A
:104B1000BB00F0E0EB51FE4F808390910602809144
:104B200005029817C8F285E8D8CFE091060281E027
:104B30008E0F809306028091BB00F0E0EB51FE4F98
:104B400080838091E40181115ECF81E08093E30155
:104B500084EA8093BC001092E20128CF85EC809318
:104B6000BC001092E2018091E001803230F4E091CB
:104B7000E001F0E0E054FE4F10826091E00170E04F
:104B800080EC91E0F0E0E0E009951092E0010ECFBA
:104B90001092E10138CFCF93DF93EC018885882311
:104BA00099F09FB7F89480919401882319F081506F
:104BB0008093940180919401811105C08CB58F7B05
:104BC0008CBD109296019FBF8C859D850E94802B85
:104BD0008E859F85DF91CF910C94802B0F931F932F
:104BE000CF93DF9386E291E09093BB028093BA0269
:104BF000C091DF02D091E002209759F1FE01329777
:104C00002081318144E4429FC001439F900D1124D3
:104C1000C80FD91F8091DF029091E0028C179D0789
:104C2000A1F0C454D10989A99AA9009739F0FC01CF
:104C3000048115810E94802BC801F7CF8CA99DA902
:104C4000009741F30E94802BE5CFCE0102970E948E
:104C5000802B8EEB92E00E94CB2583EE92E0DF91D9
:104C6000CF911F910F910C94CB25ECE1F2E01382D0
:104C7000128288EE93E0A0E0B0E084839583A6835F
:104C8000B78384E191E09183808385EC90E0958700
:104C9000848784EC90E09787868780EC90E0918B06
:104CA000808B81EC90E0938B828B82EC90E0958BF3
:104CB000848B86EC90E0978B868B118E128E138EF0
:104CC000148EE3EEF2E0158216826AE0678381E0DB
:104CD000808749EB52E05287418794E09387848B29
:104CE00022E030E031832083828383831482EAEBE5
:104CF000F2E013821282A6E2B1E0B183A0831186B2
:104D0000128663878487568745879787808F358388
:104D1000248386838783108697A30895CF93DF9398
:104D2000CDB7DEB72E970FB6F894DEBF0FBECDBF5E
:104D3000789484B5826084BD84B5816084BD85B576
:104D4000826085BD85B5816085BD80916E00816082
:104D500080936E0010928100809181008260809328
:104D6000810080918100816080938100809180002A
:104D70008160809380008091B10084608093B10055
:104D80008091B00081608093B00080917A0084604F
:104D900080937A0080917A00826080937A0080917B
:104DA0007A00816080937A0080917A008068809395
:104DB0007A001092C10083EE92E00E947B238EEB7A
:104DC00092E00E947B2311E01093E20286E490E0DF
:104DD0000E94E42AFC0181E090E0918380831382A9
:104DE00012821482158216821782108686E090E065
:104DF000908B878711A210A212A217A616A614AA3A
:104E000013AA15AA17AA16AA10AF15AE14AE17AE9C
:104E100016AEDF01A05CBF4F1D921C923296F0933C
:104E2000E002E093DF0210E004E43EEBE32E32E028
:104E3000F32E8091E202E091DF02F091E002181778
:104E400060F4CF01109F800D911D1124FC01F182AF
:104E5000E0820E94D6071F5FECCF813041F42091A1
:104E6000E1029FEF920F921710F413A294A3DF01B7
:104E700090E02AE030E0891761F018963C932E9379
:104E800017971A963C932E9319979F5FAC5BBF4F71
:104E9000F2CF8823C9F0878190854AE0489F90012E
:104EA000499F300D112480E094E44091E202841780
:104EB00070F4DF01899FA00DB11D11241C963C9355
:104EC0002E931B978F5FF1CF90E080E0E6CF10E04C
:104ED00024E4F22E01E04091DF025091E002809143
:104EE000E202181758F4CA011F9D800D911D11246C
:104EF000FC0106AB0E94D6071F5FEDCF90E084E473
:104F00002091E202921748F4FA01989FE00DF11DFA
:104F10001124178E168E9F5FF3CF90E084E42091CA
:104F2000E202FA01921768F090E061E070E09217F7
:104F300081F0718F608F138E128E9F5FEC5BFF4F3D
:104F4000F6CF989FE00DF11D1124178A168A9F5FF6
:104F5000E6CF90E084E42091E202921740F4FA0157
:104F6000989FE00DF11D1124158E9F5FF4CF10E086
:104F700004E48091E202181768F48091DF029091B6
:104F8000E00267E0109F800D911D11240E94021A1B
:104F90001F5FEFCFE0912C02F0912D0282E0808321
:104FA000E0912C02F0912D021082E0912802F09104
:104FB00029021082E0912A02F0912B0280E1808385
:104FC00010923402E0913002F091310286E0808349
:104FD000E0912E02F0912F02808180618083E09128
:104FE0002E02F0912F02808188608083E0912E0252
:104FF000F0912F02808180688083E0912E02F091F1
:105000002F0280818F7D808390E0E92E90E0F92E41
:105010008CE192E00E94EF03892BE9F18CE192E0B0
:105020000E94CD03813309F042C065E070E090E05A
:1050300080E00E94092C8C0150E040E0009741F094
:10504000FC01108263E371E00E94D62C44E050E042
:10505000B8018AEB92E00E94FB070E94CE0784E52C
:1050600090E00E947E0485E690E00E947E0488E73E
:1050700090E00E947E0484E790E00E947E0468EE47
:1050800073E080E090E00E9414050115110519F00D
:10509000C8010E94802BE114F10409F4B9CF0E94E9
:1050A000FB03882309F4B4CF0E940000B1CF823300
:1050B00009F058C04091EE02415060E083EE92E06A
:1050C0000E94C30E86E0EAE0F1E0DE01199601904D
:1050D0000D928A95E1F788E3C82E81E0D82EF6017B
:1050E00061916F016623B9F2062E000C770B9E01C9
:1050F0002F5F3F4F48E083EE92E00E94B008082FF8
:1051000010E0A12EB12CE9E0F0E0EC0FFD1FEA0D5C
:10511000FB1D8081082E000C990B0E947E0440919B
:10512000EE02415030E020E060E083EE92E00E9429
:10513000EB0E101768F4E1E0F0E0EC0FFD1FEA0D54
:10514000FB1D408170E060E083EE92E00E94940BD2
:1051500062E370E080E090E00E9414051F5F011799
:1051600080F6BDCF833309F096CF83E491E00E94AF
:105170002E0881E390E00E947E0486E390E00E9486
:105180007E048AE390E00E947E0481E390E00E9426
:105190007E0487E390E00E947E040E94CE0768EEC2
:1051A00073E080E090E00E9414058BE491E00E949F
:1051B0002E080E94CE0781E390E00E947E0486E3E1
:1051C00090E00E947E048AE390E00E947E0481E3E6
:1051D00090E00E947E0488E390E00E947E040E949A
:1051E000CE0768EE73E080E090E00E94140583E54E
:1051F00091E00E942E080E94CE0781E390E00E9479
:105200007E0486E390E00E947E048AE390E00E94A0
:105210007E0481E390E00E947E0489E390E00E9496
:105220007E040E94CE0768EE73E080E090E00E946A
:1052300014058BE591E00E942E080E94CE0781E3C1
:1052400090E00E947E0486E390E00E947E048AE360
:1052500090E00E947E0482E390E00E947E0480E35E
:1052600090E00E947E0468EE73E080E090E00E948F
:10527000140583E691E00E942E080E94CE0781E388
:1052800090E00E947E0486E390E00E947E048AE320
:1052900090E00E947E0482E390E00E947E0481E31D
:1052A00090E00E947E040E94CE0768EE73E080E0EA
:1052B00090E00E9414058BE691E00E942E080E9467
:1052C000CE0781E390E00E947E0486E390E00E9496
:1052D0007E048AE390E00E947E0482E390E00E94D4
:1052E0007E0482E390E00E947E040E94CE0768EE76
:1052F00073E080E090E00E94140583E791E00E9453
:105300002E0868EE73E080E090E00E9414058BE7C1
:1053100091E00E942E0868EE73E080E090E00E9429
:10532000140583E891E00E942E0868EE73E080E0A7
:1053300090E00E9414058BE891E00E942E08ABCE0D
:105340008F929F92AF92BF92CF92DF92EF92FF9295
:10535000CF93DF93EC01688179818A819B8161150C
:1053600071058105910521F464E279ED8BE597E003
:105370002DE133EF41E050E00E94442A49015A01F7
:105380009B01AC01A7EAB1E40E94632A6B017C0196
:10539000ACEEB4EFA50194010E94712AC60ED71E8F
:1053A000E81EF91EF7FE06C081E0C81AD108E10820
:1053B00080E8F80AC882D982EA82FB82C701B60176
:1053C0009F77DF91CF91FF90EF90DF90CF90BF90CC
:1053D000AF909F908F9008958F929F92AF92BF92BF
:1053E000CF92DF92EF92FF926091000170910101E4
:1053F000809102019091030161157105810591056C
:1054000021F464E279ED8BE597E02DE133EF41E0A3
:1054100050E00E94442A49015A019B01AC01A7EACD
:10542000B1E40E94632A6B017C01ACEEB4EFA501EC
:1054300094010E94712AC60ED71EE81EF91EF7FEBF
:1054400006C081E0C81AD108E10880E8F80AC092D5
:105450000001D0920101E0920201F0920301C70124
:10546000B6019F77FF90EF90DF90CF90BF90AF9005
:105470009F908F9008956093000170930101809335
:105480000201909303010895052E97FB1EF40094EA
:105490000E945B2A57FD07D00E94AD2A07FC03D06B
:1054A0004EF40C945B2A50954095309521953F4FD2
:1054B0004F4F5F4F089590958095709561957F4F00
:1054C0008F4F9F4F08950E94CF2AA59F900DB49FA4
:1054D000900DA49F800D911D11240895B7FF0C9489
:1054E000632A0E94632A821B930B08952F923F9296
:1054F0004F925F926F927F928F929F92AF92BF92E4
:10550000CF92DF92EF92FF920F931F93CF93DF938F
:10551000CDB7DEB7CA1BDB0B0FB6F894DEBF0FBEEC
:10552000CDBF09942A88398848885F846E847D8439
:105530008C849B84AA84B984C884DF80EE80FD803B
:105540000C811B81AA81B981CE0FD11D0FB6F894B1
:10555000DEBF0FBECDBFED010895A1E21A2EAA1B3A
:10556000BB1BFD010DC0AA1FBB1FEE1FFF1FA21713
:10557000B307E407F50720F0A21BB30BE40BF50B10
:10558000661F771F881F991F1A9469F76095709599
:10559000809590959B01AC01BD01CF010895A29F1C
:1055A000B001B39FC001A39F700D811D1124911DF7
:1055B000B29F700D811D1124911D0895EE0FFF1FE4
:1055C0000590F491E02D09940F931F93CF93DF93EF
:1055D0008230910510F482E090E0E0910603F091B2
:1055E000070330E020E0B0E0A0E0309799F4211507
:1055F000310509F44AC0281B390B24303105D8F590
:105600008A819B816115710589F1FB0193838283F6
:10561000FE0111C040815181028113814817590751
:10562000E0F04817590799F4109761F012960C931F
:10563000129713961C933296CF01DF91CF911F9151
:105640000F9108950093060310930703F4CF2115DB
:10565000310551F04217530738F0A901DB019A01D7
:10566000BD01DF01F801C1CFEF01F9CF909307032E
:1056700080930603CDCFFE01E20FF31F8193919338
:105680002250310939832883D7CF209104033091E8
:105690000503232B41F4209106013091070130933B
:1056A0000503209304032091040130910501211585
:1056B000310541F42DB73EB74091080150910901E1
:1056C000241B350BE0910403F0910503E217F30767
:1056D000A0F42E1B3F0B2817390778F0AC014E5F62
:1056E0005F4F2417350748F04E0F5F1F5093050397
:1056F00040930403819391939FCFF0E0E0E09CCF2F
:10570000CF93DF930097E9F0FC0132971382128266
:10571000A0910603B0910703ED0130E020E010975F
:10572000A1F420813181820F931F209104033091D5
:1057300005032817390709F061C0F0930503E093CA
:105740000403DF91CF910895EA01CE17DF07E8F552
:105750004A815B819E0141155105B1F7E901FB8347
:10576000EA8349915991C40FD51FEC17FD0761F4E5
:10577000808191810296840F951FE9019983888326
:10578000828193819B838A83F0E0E0E012968D9181
:105790009C9113970097B9F52D913C911197CD01EC
:1057A0000296820F931F209104033091050328175E
:1057B000390739F6309751F5109207031092060316
:1057C000B0930503A0930403BCCFD383C28340816D
:1057D0005181840F951FC817D90761F44E5F5F4F41
:1057E00088819981480F591F518340838A819B8109
:1057F000938382832115310509F0B0CFF09307031D
:10580000E09306039ECFFD01DC01C0CF138212821C
:10581000D7CFB0E0A0E0EFE0FCE20C94782A8C0156
:10582000009751F4CB010E94E42A8C01C801CDB746
:10583000DEB7E0E10C94942AFC01E60FF71F9C010F
:1058400022503109E217F30708F49DC0D901CD9128
:10585000DC911197C617D70798F0C530D10530F302
:10586000CE0104978617970708F3C61BD70B22971C
:10587000C193D1936D937C93CF010E94802BD6CF9F
:105880005B01AC1ABD0A4C018C0E9D1EA091060353
:10589000B0910703512C412CF12CE12C109731F5DC
:1058A00080910403909105038815990509F05CC067
:1058B0004616570608F058C08091040190910501E2
:1058C000009741F48DB79EB74091080150910901AE
:1058D000841B950BE817F90708F055C0F0930503F2
:1058E000E0930403F90171836083A0CF8D919C91B3
:1058F000119712966C90129713967C901397A81597
:10590000B90559F56C0142E0C40ED11CCA14DB0480
:1059100020F1AC014A195B09DA011296159780F063
:105920006282738251834083D9016D937C93E11429
:10593000F10471F0D7011396FC93EE93129776CF92
:1059400022968C0F9D1FF90191838083F301EFCF85
:10595000F0930703E093060369CF4816590608F44D
:105960002C017D01D3019ACFCB010E94E42A7C0156
:10597000009749F0AE01B8010E94C62CC8010E94F0
:10598000802B870153CF10E000E050CFFB01DC01FA
:1059900002C001900D9241505040D8F70895DC01AB
:1059A00001C06D9341505040E0F70895FB01DC01C8
:1059B00001900D920020E1F7089512E0C2EFD2E0CD
:1059C00004C0FE010E94DE2A2196C33FD107C9F719
:0459D000F894FFCF79
:1059D4000100000000000803800048656C6C6F0043
:1059E4000000000031049103BE038304EF03CD03E0
:1059F400E103000000002907FB0742074107201AC2
:105A04000D0A00546578740048656C6C6F20202082
:105A14002020002031363A313720002031363A3107
:105A24003820002031363A313920002031363A32DC
:105A34003020002031363A323120002031363A32DB
:105A44003220002031363A323320002031363A32C7
:105A54003420002031363A323520002031363A32B3
:045A640036200000E8
:00000001FF
