:040000000128FC2FA8
:100F46007A302100990023008C010800AE2F013071
:100F5600F0020030F13B70087104031DB32FB42F6B
:100F6600AA2F0800C12F2C30F0000130F100873184
:100F7600A92787310130F2020030F33B720873046F
:100F8600031DC62FC72FB62F080021000C108C108A
:100F96000C110C128C128731A327873120000C14F8
:100FA6003230F2000030F3008731B5278731200058
:100FB6000C108C143230F2000030F3008731B52764
:100FC600873120008C100C153230F2000030F3000F
:100FD6008731B527873120000C118C163230F2008C
:100FE6000030F3008731B527873120008C12D12FCE
:0A0FF6000128F401F5012000C82FC6
:020000040001F9
:08000000FF3FFF3FFF3FFF3F00
:04000E00A43FFF1FED
:00000001FF
